S0120000526F626F7420436F64652E7372656371
S11300000C943E000C9450000C9450000C9450003E
S11300100C9450000C9450000C9450000C9450001C
S11300200C9450000C9450000C9450000C9450000C
S11300300C9450000C9450000C9450000C945000FC
S11300400C948F000C9450000C9450000C945000AD
S11300500C9450000C9450000C9450000C945000DC
S11300600C9450000C9450000C9450000C945000CC
S11300700C9450000C9450000C94500011241FBE9A
S1130080CFEFD0E1DEBFCDBF21E0A0E0B1E001C001
S11300901D92A230B207E1F70E9452000C94C500F1
S11300A00C9400000E946E00789480E090E00E941E
S11300B07C002FEF8FEF90EE215080409040E1F7CD
S11300C000C000000E9486002FEF8FEF90EE2150B9
S11300D080409040E1F700C00000E7CF84B18F601A
S11300E084B985B18F6085B984B5826084BD88E1A7
S11300F087BD84E085BD089590930101809300013C
S1130100EEE6F0E08081826080830895EEE6F0E020
S113011080818D7F808385B18F6085B908951F921A
S11301200F920FB60F9211248F939F9385B18F7006
S11301308F3009F580910001909101018130910582
S113014071F01CF4892B39F019C08230910559F0F3
S1130150039769F013C085B1807F85B90FC085B15D
S1130160857F85B90BC085B1847F85B907C085B10A
S1130170817F85B903C085B18F6085B99F918F91C7
S11101800F900FBE0F901F901895F894FFCFAC
S9030000FC
